S00D00004C534130382E73726563CF
S113000071C000008EC000008CC000008AC00000D7
S113001088C0000086C0000084C0000082C00000C8
S113002080C000007EC000007CC000007AC00000D8
S113003078C0000076C0000074C0000072C00000E8
S113004070C000006EC000006CC000006AC00000F8
S113005068C0000066C0000064C0000062C0000008
S113006060C0000040C100005CC000005AC0000035
S113007058C0000056C0000054C0000052C0000028
S113008050C000004EC000004CC000004AC0000038
S11300903AC1000046C0000044C0000042C0000055
S11300A040C000003EC000003CC000003AC0000058
S11300B038C0000036C0000034C0000032C0000068
S11300C030C000002EC000002CC000002CC1000075
S11300D028C0000026C0000036C1000022C0000075
S11300E020C0000011241FBECFEFD1E2DEBFCDBF80
S11300F000E00CBF12E0A0E0B2E0E0EDF3E000E0CD
S11301000BBF02C007900D92AE30B107D9F722E0C1
S1130110AEE0B2E001C01D92A231B207E1F759D0BE
S113012055C16ECFFC01608316821382128208953A
S1130130789482D0A4E0B1E08C918E7F8C93E5E03A
S1130140F1E080818E7F80838C9182608C938081AA
S11301508D7F808308950F931F93CF93DF93EC01DA
S1130160062F142F8881982F940F960F998378D097
S1130170802F76D0812F74D0898172D0DF91CF9176
S11301801F910F91089540E063E4E5CF0895FC01C9
S11301908681882321F08091030180FF09C080912A
S11301A0030180FF02C081E08683828193810895E8
S11301B0828193810196938382831682F0CFCF93B9
S11301C0DF93EC0155D090E09D838C83DF91CF9138
S11301D00895CF93DF93CDB7DEB727970FB6F89482
S11301E0DEBF0FBECDBF1CD060E070E0CE01019633
S11301F099DFCE0101969CDFCE010196C4DF80E039
S113020092E063D0CE010196DADF37D086E092E047
S11302105CD0CE010196BBDF30D08AE019D0EFCF9D
S11302201092C50087E68093C40088E98093C100DA
S113023086E08093C20008951092D50089E18093EE
S1130240D40088E98093D10086E08093D200089599
S1130250E0ECF0E0908195FFFDCF8093C600089517
S1130260E0EDF0E0908195FFFDCF8093D6000895F6
S113027080910F0210920F0208950F931F93CF9352
S1130280DF93CDB7DEB764970FB6F894DEBF0FBE29
S1130290CDBF4AE0BE016F5F7F4F65D0898188235F
S11302A049F08E010E5F1F4FD3DFF80181918F015A
S11302B08111FACF64960FB6F894DEBF0FBECDBF9E
S11302C0DF91CF911F910F910895CF93DF93EC01AC
S11302D08881882329F02196BBDF89918111FCCF85
S11302E0DF91CF9108951F920F920FB60F921124B0
S11302F08F938091C600809311028F910F900FBE4F
S11303000F901F9018951F920F920FB60F92112401
S11303108F938091CE00809310028F910F900FBE27
S11303200F901F9018951F920F920FB60F921124E1
S11303308F938091D60080930F028F910F900FBE00
S11303400F901F9018951F920F920FB60F921124C1
S11303508F938091360180930E028F910F900FBE80
S11303600F901F901895BB274A3031F4992322F43B
S1130370BDE2909581959F4F01C0BB27FB01552796
S1130380AA27880F991FAA1FA41710F0A41B8395EE
S11303905051B9F7A05DAA3308F0A95DA193009765
S11303A079F7B111B1931192CB0100C0DC01FC01CA
S11303B0672F71917723E1F7329704C07C916D9395
S11303C070836291AE17BF07C8F30895F894FFCF06
S11103D044617461090009436F756E7409007D
S9030000FC
